{
  "address": "0xDB6D6861f6511952f5c8906fd596d94B5D1e2a9a",
  "abi": [
    {
      "inputs": [],
      "stateMutability": "nonpayable",
      "type": "constructor"
    },
    {
      "inputs": [
        {
          "internalType": "address",
          "name": "owner",
          "type": "address"
        }
      ],
      "name": "OwnableInvalidOwner",
      "type": "error"
    },
    {
      "inputs": [
        {
          "internalType": "address",
          "name": "account",
          "type": "address"
        }
      ],
      "name": "OwnableUnauthorizedAccount",
      "type": "error"
    },
    {
      "anonymous": false,
      "inputs": [
        {
          "indexed": false,
          "internalType": "bytes32",
          "name": "",
          "type": "bytes32"
        }
      ],
      "name": "AddRoot",
      "type": "event"
    },
    {
      "anonymous": false,
      "inputs": [
        {
          "indexed": true,
          "internalType": "address",
          "name": "previousOwner",
          "type": "address"
        },
        {
          "indexed": true,
          "internalType": "address",
          "name": "newOwner",
          "type": "address"
        }
      ],
      "name": "OwnershipTransferred",
      "type": "event"
    },
    {
      "inputs": [
        {
          "internalType": "bytes32",
          "name": "merkleRoot",
          "type": "bytes32"
        }
      ],
      "name": "addRoot",
      "outputs": [],
      "stateMutability": "nonpayable",
      "type": "function"
    },
    {
      "inputs": [
        {
          "internalType": "bytes32",
          "name": "",
          "type": "bytes32"
        }
      ],
      "name": "merkleRootExist",
      "outputs": [
        {
          "internalType": "bool",
          "name": "",
          "type": "bool"
        }
      ],
      "stateMutability": "view",
      "type": "function"
    },
    {
      "inputs": [],
      "name": "owner",
      "outputs": [
        {
          "internalType": "address",
          "name": "",
          "type": "address"
        }
      ],
      "stateMutability": "view",
      "type": "function"
    },
    {
      "inputs": [],
      "name": "renounceOwnership",
      "outputs": [],
      "stateMutability": "nonpayable",
      "type": "function"
    },
    {
      "inputs": [
        {
          "internalType": "address",
          "name": "newOwner",
          "type": "address"
        }
      ],
      "name": "transferOwnership",
      "outputs": [],
      "stateMutability": "nonpayable",
      "type": "function"
    },
    {
      "inputs": [
        {
          "internalType": "address",
          "name": "",
          "type": "address"
        }
      ],
      "name": "verified",
      "outputs": [
        {
          "internalType": "bool",
          "name": "",
          "type": "bool"
        }
      ],
      "stateMutability": "view",
      "type": "function"
    },
    {
      "inputs": [
        {
          "internalType": "uint256",
          "name": "index",
          "type": "uint256"
        },
        {
          "internalType": "address",
          "name": "account",
          "type": "address"
        },
        {
          "internalType": "bytes32",
          "name": "merkleRoot",
          "type": "bytes32"
        },
        {
          "internalType": "bytes32[]",
          "name": "merkleProof",
          "type": "bytes32[]"
        }
      ],
      "name": "verify",
      "outputs": [
        {
          "internalType": "bool",
          "name": "",
          "type": "bool"
        }
      ],
      "stateMutability": "nonpayable",
      "type": "function"
    }
  ],
  "transactionHash": "0x543f88a146566ae1362090330d85ab6b613857f7b3476e61a33d04a0896dac01",
  "args": [],
  "numDeployments": 1,
  "solcInputHash": "d04ca63b2be6f24dbe8380d2735cb438",
  "bytecode": "0x608060405234801561001057600080fd5b50338061003757604051631e4fbdf760e01b81526000600482015260240160405180910390fd5b61004081610046565b50610096565b600080546001600160a01b038381166001600160a01b0319831681178455604051919092169283917f8be0079c531659141344cd1fd0a4f28419497f9722a3daafe3b4186f6b6457e09190a35050565b610657806100a56000396000f3fe608060405234801561001057600080fd5b506004361061007d5760003560e01c80638a45fa2f1161005b5780638a45fa2f146100e75780638da5cb5b146100fa578063d59e646114610122578063f2fde38b1461013557600080fd5b80630db065f414610082578063649355bb146100ba578063715018a6146100dd575b600080fd5b6100a56100903660046104c8565b60026020526000908152604090205460ff1681565b60405190151581526020015b60405180910390f35b6100a56100c83660046104e3565b60016020526000908152604090205460ff1681565b6100e5610148565b005b6100a56100f53660046104fc565b61015c565b60005460405173ffffffffffffffffffffffffffffffffffffffff90911681526020016100b1565b6100e56101303660046104e3565b610280565b6100e56101433660046104c8565b6102d9565b610150610342565b61015a6000610395565b565b60008381526001602052604081205460ff1680156102355750610235838380806020026020016040519081016040528093929190818152602001838360200280828437600092019190915250506040518892506101df91508a908a9060200191825273ffffffffffffffffffffffffffffffffffffffff16602082015260400190565b604080517fffffffffffffffffffffffffffffffffffffffffffffffffffffffffffffffe0818403018152828252805160209182012090830152016040516020818303038152906040528051906020012061040a565b15610273575073ffffffffffffffffffffffffffffffffffffffff84166000908152600260205260409020805460ff19166001908117909155610277565b5060005b95945050505050565b610288610342565b600081815260016020818152604092839020805460ff191690921790915590518281527fd80c681b4765aa72d18c1ff39f781ef9d9a6eda4360ae6d0316e7f43d3df6536910160405180910390a150565b6102e1610342565b73ffffffffffffffffffffffffffffffffffffffff8116610336576040517f1e4fbdf7000000000000000000000000000000000000000000000000000000008152600060048201526024015b60405180910390fd5b61033f81610395565b50565b60005473ffffffffffffffffffffffffffffffffffffffff16331461015a576040517f118cdaa700000000000000000000000000000000000000000000000000000000815233600482015260240161032d565b6000805473ffffffffffffffffffffffffffffffffffffffff8381167fffffffffffffffffffffffff0000000000000000000000000000000000000000831681178455604051919092169283917f8be0079c531659141344cd1fd0a4f28419497f9722a3daafe3b4186f6b6457e09190a35050565b6000826104178584610420565b14949350505050565b600081815b8451811015610465576104518286838151811061044457610444610593565b602002602001015161046d565b91508061045d816105c2565b915050610425565b509392505050565b6000818310610489576000828152602084905260409020610498565b60008381526020839052604090205b9392505050565b803573ffffffffffffffffffffffffffffffffffffffff811681146104c357600080fd5b919050565b6000602082840312156104da57600080fd5b6104988261049f565b6000602082840312156104f557600080fd5b5035919050565b60008060008060006080868803121561051457600080fd5b853594506105246020870161049f565b935060408601359250606086013567ffffffffffffffff8082111561054857600080fd5b818801915088601f83011261055c57600080fd5b81358181111561056b57600080fd5b8960208260051b850101111561058057600080fd5b9699959850939650602001949392505050565b7f4e487b7100000000000000000000000000000000000000000000000000000000600052603260045260246000fd5b60007fffffffffffffffffffffffffffffffffffffffffffffffffffffffffffffffff820361061a577f4e487b7100000000000000000000000000000000000000000000000000000000600052601160045260246000fd5b506001019056fea26469706673582212208b25cb4280918feb8ee8c3635810e5bb5a5b6f54cedc32fa4ebc4b639147063164736f6c63430008140033",
  "devdoc": {
    "errors": {
      "OwnableInvalidOwner(address)": [
        {
          "details": "The owner is not a valid owner account. (eg. `address(0)`)"
        }
      ],
      "OwnableUnauthorizedAccount(address)": [
        {
          "details": "The caller account is not authorized to perform an operation."
        }
      ]
    },
    "kind": "dev",
    "methods": {
      "owner()": {
        "details": "Returns the address of the current owner."
      },
      "renounceOwnership()": {
        "details": "Leaves the contract without owner. It will not be possible to call `onlyOwner` functions. Can only be called by the current owner. NOTE: Renouncing ownership will leave the contract without an owner, thereby disabling any functionality that is only available to the owner."
      },
      "transferOwnership(address)": {
        "details": "Transfers ownership of the contract to a new account (`newOwner`). Can only be called by the current owner."
      }
    },
    "version": 1
  },
  "userdoc": {
    "kind": "user",
    "methods": {},
    "version": 1
  },
  "storageLayout": {
    "storage": [
      {
        "astId": 8,
        "contract": "contracts/WhiteListManager.sol:WhiteListManager",
        "label": "_owner",
        "offset": 0,
        "slot": "0",
        "type": "t_address"
      },
      {
        "astId": 906,
        "contract": "contracts/WhiteListManager.sol:WhiteListManager",
        "label": "merkleRootExist",
        "offset": 0,
        "slot": "1",
        "type": "t_mapping(t_bytes32,t_bool)"
      },
      {
        "astId": 910,
        "contract": "contracts/WhiteListManager.sol:WhiteListManager",
        "label": "verified",
        "offset": 0,
        "slot": "2",
        "type": "t_mapping(t_address,t_bool)"
      }
    ],
    "types": {
      "t_address": {
        "encoding": "inplace",
        "label": "address",
        "numberOfBytes": "20"
      },
      "t_bool": {
        "encoding": "inplace",
        "label": "bool",
        "numberOfBytes": "1"
      },
      "t_bytes32": {
        "encoding": "inplace",
        "label": "bytes32",
        "numberOfBytes": "32"
      },
      "t_mapping(t_address,t_bool)": {
        "encoding": "mapping",
        "key": "t_address",
        "label": "mapping(address => bool)",
        "numberOfBytes": "32",
        "value": "t_bool"
      },
      "t_mapping(t_bytes32,t_bool)": {
        "encoding": "mapping",
        "key": "t_bytes32",
        "label": "mapping(bytes32 => bool)",
        "numberOfBytes": "32",
        "value": "t_bool"
      }
    }
  }
}